:020000040800F2
:100000006006002049010008510100085301000862
:1000100000000000000000000000000000000000E0
:100020000000000000000000000000005501000872
:1000300000000000000000005701000859010008FE
:100040005B0100085B0100085B0100085B01000820
:100050005B0100085B0100085B0100085B01000810
:100060005B0100085B0100085B0100085B01000800
:100070005B0100085B0100085B0100085B010008F0
:100080005B0100085B0100085B0100085B010008E0
:100090005B0100085B0100085B0100085B010008D0
:1000A0005B0100085B0100085B0100085B010008C0
:1000B0005B0100085B0100085B0100085B010008B0
:1000C00000F002F800F030F80CA030C8083824180E
:1000D0002D18671EA246AB4654465D46AC4201D180
:1000E00000F022F87E460F3EB6460FCC0126334282
:1000F00000D0FB1A3343A246AB4618474405000024
:10010000540500000023002400250026103A01D3E6
:1001100078C1FBD8520700D330C100D50B607047BF
:100120001FB51FBD10B510BD00F0E3F81146FFF775
:10013000F7FF00F023F900F0FBF803B4FFF7F2FF3C
:1001400003BC00F001F9000007488047074800475A
:10015000FEE7FEE7FEE7FEE7FEE7FEE704480549A7
:10016000054A064B7047000057030008C10000080D
:100170006000002060060020600200206002002075
:10018000002203098B422CD3030A8B4211D3002394
:100190009C464EE003460B433CD4002243088B426E
:1001A00031D303098B421CD3030A8B4201D39446FB
:1001B0003FE0C3098B4201D3CB01C01A52418309EE
:1001C0008B4201D38B01C01A524143098B4201D3A8
:1001D0004B01C01A524103098B4201D30B01C01AD3
:1001E0005241C3088B4201D3CB00C01A524183084D
:1001F0008B4201D38B00C01A524143088B4201D37A
:100200004B00C01A5241411A00D2014652411046D9
:1002100070475DE0CA0F00D04942031000D340424E
:1002200053409C46002203098B422DD3030A8B4284
:1002300012D38901FC2212BA030A8B420CD3890122
:1002400092118B4208D3890192118B4204D3890108
:100250003AD0921100E08909C3098B4201D3CB0146
:10026000C01A524183098B4201D38B01C01A5241FB
:1002700043098B4201D34B01C01A524103098B42FF
:1002800001D30B01C01A5241C3088B4201D3CB00EA
:10029000C01A524183088B4201D38B00C01A5241CD
:1002A000D9D243088B4201D34B00C01A5241411AA4
:1002B00000D201465241104663465B1001D34042D2
:1002C000002B00D54942704763465B1000D3404283
:1002D00001B50549002802DC491C084000E0084639
:1002E000C046C04602BD00BFFFFFFF7F704770479A
:1002F0007047754600F024F8AE460500694653463F
:10030000C008C000854618B020B5FFF727FF60BCC5
:10031000B64600260027C0C5C0C5C0C5C0C5C0C5FB
:10032000C0C5C0C5C0C5403D490849008D4670479D
:1003300010B50446C046C0462046FFF7FEFE10BD7D
:10034000004870470000002001491820ABBEFEE7BE
:10035000260002007047704782B001900020009094
:10036000FFE700980199884205D2FFE7FFE7009870
:10037000401C0090F5E702B070470000B0B5A0B097
:1003800000201F9078490A6801239B041A430A60E1
:1003900076490A68764B1A430A6076490A68764BB2
:1003A0001A430A600A68FF231B069A430A607349CE
:1003B0008A89CB891B049A181E920A894B891B04CF
:1003C0009A181D928A88CB881B049A181C920A8856
:1003D0004988090489181B911AA9088018A98880DE
:1003E000189067480AA91CC81CC13CC83CC11CC85D
:1003F0001CC13CC83CC1FFE71AA80021018061482C
:10040000026892B2D20B1BAB9A8002680124A5034A
:100410002A40920BDA80026865032A40520B1A8147
:10042000006822031040000BD8810720099008A81B
:100430000180FFE708A8008807281ADCFFE708A862
:10044000008840001BA9085A09990222059010460D
:1004500000F0A4F8059948431A9908181AA90880C9
:100460000998401E0990FFE70898401C08A90880D9
:10047000E0E707A800210180FFE707A800880D2812
:1004800029DCFFE71AA800880D2807DCFFE71A9887
:1004900007A90988490018AA50521CE01AA8018827
:1004A0000E220490084611460392FFF769FE07AA40
:1004B0001288520018AB995204990A88029010468B
:1004C0000399FFF75DFE04990880FFE70798401C39
:1004D00007A90880D1E706A803210180FFE706A845
:1004E000008800B200282DD4FFE706A8008800B2DB
:1004F000032102464A40400018A9085A0243002A34
:1005000001D1FFE719E006A8008800B2400018A951
:10051000085A80000AA908581B490A6802430A6061
:100520001C480191FFF718FF01980168184A114310
:1005300001601948FFF710FFFFE70698401E06A963
:100540000880CCE7104801680522D2011143016000
:100550000E4900900846FFF7FFFE009801680C4A1C
:100560001143016048E7C0461410024008040048E7
:100570005555000000040048555504003006000899
:10058000F8050008100400481804004820A10700DE
:100590000000FFFF400D030050C3000080B584B091
:1005A000029001910198002803D1FFE701200390F8
:1005B0001EE00198012803D1FFE70298039017E09D
:1005C00001A80078C007002808D1FFE7029840433F
:1005D00001994908FFF7E2FF039009E002984043C0
:1005E00001994908FFF7DAFF029941430391FFE7B8
:1005F000039804B080BD00003F0200000602000026
:100600005B0200004F020000660200006D02000065
:100610007D020000070200007F0200006F02000060
:10062000770200007C020000390200005E02000038
:1006300000000100000000000000010001000000B7
:1006400050060008000000206006000004010008B9
:0400000508000149A5
:00000001FF
