:020000040800F2
:1000000080060020650100086D0100086F010008EE
:1000100000000000000000000000000000000000E0
:100020000000000000000000000000007101000856
:1000300000000000000000007301000875010008C6
:1000400077010008770100087701000877010008B0
:1000500077010008770100087701000877010008A0
:100060007701000877010008770100087701000890
:100070007701000877010008770100087701000880
:100080007701000877010008770100087701000870
:100090007701000877010008770100087701000860
:1000A000770100087701000877010008990200082D
:1000B0007701000877010008770100087701000840
:1000C00000F002F800F03EF80CA030C80838241800
:1000D0002D18671EA246AB4654465D46AC4201D180
:1000E00000F030F87E460F3EB6460FCC0126334274
:1000F00000D0FB1A3343A246AB461847E403000086
:1001000004040000103A02D378C878C1FAD8520724
:1001100001D330C830C101D504680C6070470000BD
:100120000023002400250026103A01D378C1FBD813
:10013000520700D330C100D50B6070471FB51FBDFB
:1001400010B510BD00F02DF81146FFF7F7FF00F0D5
:1001500051F900F045F803B4FFF7F2FF03BC00F0DB
:100160004BF800000748804707480047FEE7FEE7D6
:10017000FEE7FEE7FEE7FEE704480549054A064BB1
:100180007047000095020008C100000880000020B0
:100190008006002080020020800200207047704707
:1001A0007047754600F024F8AE4605006946534690
:1001B000C008C000854618B020B5FFF7DDFF60BC61
:1001C000B64600260027C0C5C0C5C0C5C0C5C0C54D
:1001D000C0C5C0C5C0C5403D490849008D467047EF
:1001E00010B50446C046C0462046FFF7B4FF10BD18
:1001F000004870471000002001491820ABBEFEE700
:100200002600020070470000B0B5012081038B4A30
:1002100053680B435360410413680B43136005217B
:10022000CA041A490B460C3B1C6814431C6011227B
:1002300012018B6913438B6142020B46083B1C6819
:1002400094431C60032293040C689C430C600C1FB5
:1002500025681D43256012050B6893430B6002055A
:100260000B6813430B600A490A6882430A604522FF
:10027000CA600C220A600A68602313430B600022E4
:100280004A608A600A6802430A60B0BD0C000048F8
:10029000003801407047000070B581B06846052203
:1002A00002804E480168890600D490E00189CBB2F3
:1002B00019467F2B6DD00D2B76D149490B78002B39
:1002C0001FD0484B00241C606D462A805C609C60F7
:1002D0000A7852B2012A14DB434C6D462D886D001A
:1002E000655B0626B61A76009D5305682D06FCD57B
:1002F0007F258581009D6D1E6E463580521EECDC8B
:100300000A7002681206FCD51B228281026812065E
:10031000FCD55B22828102681206FCD541228281D3
:1003200000220A7069460A8001680906FCD50D2181
:1003300081812E4B04682406FCD554001C5B84810B
:10034000521C262AF6D10022264B04682406FCD52E
:1003500054001C5B30348481521C062AF5D102689B
:100360001206FCD50A22828102681206FCD5818120
:1003700000211F4A03681B06FCD54B00D35A83811A
:10038000491C2629F6D1184900220A604A608A6071
:100390001DE0134C25786DB2012D05DB02681206B5
:1003A000FCD58181691E11E0303B9CB2092C0ED82E
:1003B0000B4C25786DB2052D09DC06683606FCD598
:1003C0008181511B4900084A5352691C2170016800
:1003D000490601D54021416001B070BD1C38014083
:1003E000700000200000002074000020920400082B
:1003F00048040008EFF3108072B60124A0040F49EE
:100400000A6802430A6025040D4E306828432043E1
:1004100030600F200006316881433160200271692D
:1004200001437161FFF7F0FEE00606490A680243E6
:100430000A6062B6B461B561FCE7C04614100240C0
:100440000004004800E100E0D000BD00D000BE0084
:10045000D000B200D000BE00D000B5002000D00017
:10046000B700D000BD00D000B000D1008700D000A0
:10047000B500D000BD00D000B800D000B5002C0001
:100480002000D000BC00D000BA00D10081003A00AA
:100490002000D000BF00D000B500D1008000D00007
:1004A000B800D000BE00D000B4002000D000BC00D6
:1004B000D000B800D000B300D000B000D000BD0024
:1004C000D000B800D1008F002C002000D000BC006C
:1004D000D000BA00D10081003A00200000000000E6
:1004E00000050008000000200C00000004010008C6
:1004F0000C05000810000020700600002001000814
:0C050000000005000000000000000000EA
:040000050800016589
:00000001FF
