:020000040800F2
:1000000078060020650100086D0100086F010008F6
:1000100000000000000000000000000000000000E0
:100020000000000000000000000000007101000856
:1000300000000000000000007301000875010008C6
:1000400077010008770100087701000877010008B0
:1000500077010008770100087701000877010008A0
:100060007701000877010008770100087701000890
:100070007701000877010008770100087701000880
:100080007701000877010008770100087701000870
:100090007701000877010008770100087701000860
:1000A0007701000877010008770100084D04000877
:1000B0007701000877010008770100087701000840
:1000C00000F002F800F03EF80CA030C80838241800
:1000D0002D18671EA246AB4654465D46AC4201D180
:1000E00000F030F87E460F3EB6460FCC0126334274
:1000F00000D0FB1A3343A246AB46184770070000F6
:1001000090070000103A02D378C878C1FAD8520795
:1001100001D330C830C101D504680C6070470000BD
:100120000023002400250026103A01D378C1FBD813
:10013000520700D330C100D50B6070471FB51FBDFB
:1001400010B510BD00F0E3F81146FFF7F7FF00F01F
:10015000B9FA00F0FBF803B4FFF7F2FF03BC00F0BC
:1001600001F900000748804707480047FEE7FEE71F
:10017000FEE7FEE7FEE7FEE704480549054A064BB1
:100180007047000049040008C10000087800002002
:10019000780600207802002078020020002203095F
:1001A0008B422CD3030A8B4211D300239C464EE092
:1001B00003460B433CD4002243088B4231D303094E
:1001C0008B421CD3030A8B4201D394463FE0C30900
:1001D0008B4201D3CB01C01A524183098B4201D318
:1001E0008B01C01A524143098B4201D34B01C01A03
:1001F000524103098B4201D30B01C01A5241C3087B
:100200008B4201D3CB00C01A524183088B4201D3E9
:100210008B00C01A524143088B4201D34B00C01AD5
:100220005241411A00D201465241104670475DE0EA
:10023000CA0F00D04942031000D3404253409C46AD
:10024000002203098B422DD3030A8B4212D389016A
:10025000FC2212BA030A8B420CD3890192118B4201
:1002600008D3890192118B4204D389013AD09211AB
:1002700000E08909C3098B4201D3CB01C01A524166
:1002800083098B4201D38B01C01A524143098B422F
:1002900001D34B01C01A524103098B4201D30B0118
:1002A000C01A5241C3088B4201D3CB00C01A52413D
:1002B00083088B4201D38B00C01A5241D9D2430824
:1002C0008B4201D34B00C01A5241411A00D2014661
:1002D0005241104663465B1001D34042002B00D5CB
:1002E0004942704763465B1000D3404201B505495F
:1002F000002802DC491C084000E00846C046C04611
:1003000002BD00BFFFFFFF7F704770477047754613
:1003100000F024F8AE46050069465346C008C00008
:10032000854618B020B5FFF727FF60BCB64600260B
:100330000027C0C5C0C5C0C5C0C5C0C5C0C5C0C5F3
:10034000C0C5403D490849008D46704710B5044678
:10035000C046C0462046FFF7FEFE10BD004870476D
:100360000800002001491820ABBEFEE7260002006D
:10037000704784B00290019100920098012803D147
:10038000FFE70298039004E0029801994018039057
:10039000FFE7039804B07047B0B522480168012216
:1003A000930319430160F348016853041943016042
:1003B0000920C00601680523DB04194301601A48BF
:1003C000016811231B011943016018480168530299
:1003D000994301601648016803239C04A14301600E
:1003E00014490D6825430D6001681B0599430160A0
:1003F00001681305194301600F48016891430160CA
:100400000E4945230B600C210160016860231943EC
:1004100001600B4900230B600A490B60016811431E
:100420000160B0BD181002402400004804000048DC
:100430000C00004808000048003801400C3801401A
:1004400004380140083801407047000082B09C48E1
:100450000068800600286FD5FFE73D480088C0B2DD
:1004600001A9088008881B28009031D0FFE7009878
:1004700031283BD0FFE70098352841D0FFE70098AE
:100480005B2829D0FFE70098652813D0FFE7009884
:10049000692808D0FFE70098732812D0FFE700987A
:1004A0007E2837D043E08548022101702948002189
:1004B000017040E08148032101702648002101704D
:1004C00039E07E480421017022480021017032E0A9
:1004D0002048012101702EE01E480078012804D137
:1004E000FFE71C4802210170FFE724E0194800786B
:1004F000022804D1FFE7174803210170FFE71AE043
:1005000014480078032804D1FFE712480421017041
:10051000FFE710E00F480078042807D1FFE70D48F7
:1005200000210170654801210170FFE703E00948DF
:1005300000210170FFE7FFE7CA4800684006002875
:1005400004D5FFE7044840210160FFE702B070478F
:10055000243801406D0000202038014080B5FFE7BD
:100560005648007801281AD1FFE7FFE7BD48006828
:100570000006002801D4FFE7F8E7BB480D21018001
:10058000FFE7B84800680006002801D4FFE7F8E755
:10059000B5480A2101804948002101708CE0474894
:1005A0000078022826D1FFE7FFE7AE480068000682
:1005B000002801D4FFE7F8E7AB486E210180FFE790
:1005C000A84800680006002801D4FFE7F8E7A6481D
:1005D0003D210180FFE7A34800680006002801D400
:1005E000FFE7F8E76848006800F0D6F833480021D4
:1005F0000170FFE731480078032831D1FFE7FFE7BA
:10060000984800680006002801D4FFE7F8E79648FC
:1006100041210180FFE7934800680006002801D4CB
:10062000FFE7F8E790486E210180FFE78D480068FA
:100630000006002801D4FFE7F8E78B483D21018040
:10064000FFE7884800680006002801D4FFE7F8E7C4
:100650004E48006800F0A0F8184800210170FFE73C
:1006600016480078042826D1FFE7FFE77D48006898
:100670000006002801D4FFE7F8E77B4873210180DA
:10068000FFE7784800680006002801D4FFE7F8E794
:1006900075483D210180FFE7724800680006002888
:1006A00001D4FFE7F8E73B48006800F075F803481D
:1006B00000210170FFE753E780BDC0466C000020B9
:1006C0001C38014080B586B000200490EFF3108004
:1006D00072B605902748016801229304194301600E
:1006E00025480168254B1943016001680F231B064B
:1006F0009943016022480168130219430160029284
:10070000FFF74AFE1F480168029AD30619430160A9
:1007100062B6FFE701200390FFE70398102827DC6B
:10072000FFE703981849086018480168184A1268DA
:10073000039B0190084611461A46FFF71AFE0199DD
:100740000860144802680B68D2180260FFF706FFC1
:100750000398102807D1FFE70C48552101600D4888
:1007600000210160FFE7FFE70398401C0390D4E7F6
:10077000D0E7C04614100240000400480100010008
:100780001404004800E100E06800002000000020A0
:10079000040000207000002080B584B00390002089
:1007A00002900A200190039800280FD5FFE70398D4
:1007B00040420390FFE72B4800680006002801D460
:1007C000FFE7F8E728482D210180FFE7FFE70398BE
:1007D00000282FD0FFE703980199884208DDFFE742
:1007E00001980A21414301910298401C029020E0A7
:1007F00001980A21FFF7DCFC01900298401E02904C
:1008000003980199FFF7D4FC0091FFE715480068B1
:100810000006002801D4FFE7F8E703980099401A82
:100820000199FFF7C5FC30300F490880009803900C
:10083000FFE7CCE7FFE70B4800680006002801D47B
:10084000FFE7F8E708480D210180FFE70548006849
:100850000006002801D4FFE7F8E703480A210180D9
:1008600004B080BD1C380140283801408C080008C5
:10087000000000200800000004010008940800089F
:10088000080000207006000020010008550000004C
:0408900072000000F2
:040000050800016589
:00000001FF
